:06000000020B4A02006B36
:03000B0002006B85
:0300130002006B7D
:03001B0002006B75
:0300230002006B6D
:03002B0002006B65
:0300330002006B5D
:03003B0002006B55
:0300430002006B4D
:03004B0002006B45
:0300530002006B3D
:03005B0002006B35
:0300630002006B2D
:01006B003262
:0900800002006B0002006B00029B
:08008900006B0002006B000295
:08009100006B0002006B00028D
:08009900006B0002006B000285
:0800A100006B0002006B00027D
:0800A900006B0002006B000275
:0700B100006B0002006B0070
:0901000002006B0002006B00021A
:08010900006B0002006B000214
:08011100006B0002006B00020C
:08011900006B0002006B000204
:08012100006B0002006B0002FC
:08012900006B0002006B0002F4
:08013100006B0002006B0002EC
:08013900006B0002006B0002E4
:08014100006B0002006B0002DC
:08014900006B0002006B0002D4
:08015100006B0002006B0002CC
:08015900006B0002006B0002C4
:08016100006B0002006B0002BC
:08016900006B0002006B0002B4
:08017100006B0002006B0002AC
:07017900006B0002006B00A7
:030B5000020B583D
:030B6B00020B5327
:050B530012018080FE8C
:09018000120198C2AF120A7D12AF
:070189000626D2AF12053576
:080190003000FD1206BC80F8EE
:070198001201A1120238025E
:02019F0002A3B9
:0E01A10090E6007410F00090E60B7403F0007E
:0E01AF0090E60174C2F00090E610E4F00090BB
:0D01BD00E611E4F00090E61274E0F000900E
:0E01CA00E613E4F00090E614E4F00090E61571
:0E01D800E4F00090E6047480F00090E60474F9
:0E01E60002F00090E6047404F00090E6047449
:0E01F40006F00090E6047408F00090E604E4C3
:0E020200F00090E6187408F00090E619E4F0A1
:0E0210000090E61AE4F00090E61BE4F0009087
:0D021E00E6207402F00090E621E4F000906C
:0D022B00E670E4F00090E682E054FDF02261
:0E0238000090E6D27402F00090E6D37401F05C
:0E0246000090E6F574FFF000900C12E4939027
:0D025400E6F3F0900C13E49390E6C3F090F5
:0E0261000C14E49390E6C1F0900C15E4939019
:0D026F00E6C2F0900C17E49390E6C0F0900A
:0A027C000C18E49390E6F4F07A0009
:03028600BA80003B
:0E02890050128A037CE4EA900B6E93FD8B8288
:060297008C83F00A80E9EF
:06029D0090E6C6E4F02229
:0702A30075B2FE7580942284
:0E0B6E0001010101010101070000000000006B
:0E0B7C0000000000000000000000000000006B
:0E0B8A000000003F0101010101010107000010
:0E0B980000000000000000000000000000004F
:0E0BA600000000000000003F023801010101C4
:0E0BB40001070003020202020200000000001E
:0E0BC20000000000003600000000003F0101AE
:0E0BD00001010101010700000000000000000B
:0E0BDE00000000000000000000000000000009
:020BEC00003FC8
:0E0BEE000000000000000000000000000000F9
:0E0BFC00000000008136000100000102000030
:080C0A000000000000000000E2
:070C1200A0000000664E0087
:0502AA0090E68BE4F07A
:0902AF0090E6A0E0FA20E1F8223B
:0D02B800438020758264120B26758264124B
:0E02C5000B265380DF758264120B265380EFE8
:0802D300758264120B267A0407
:0502DB00EA600274015D
:0602E000FB700302036F36
:0502E600EA14FB7C0896
:0502EB00EC600274014B
:0E02F000FD6078EB2440F582E434E7F583E00E
:0A02FE00FD8C067F001EBEFF011FED
:070308008EF005F0ED80020C
:02030F00C31316
:0E031100D5F0FB30E017438040758264C002D7
:0E031F00C003C004120B26D004D003D002800D
:01032D0015BA
:0D032E005380BF758264C002C003C004127A
:08033B000B26D004D003D00210
:0D034300438020758264C002C003C0041214
:0E0350000B26758264120B265380DF758264C3
:0D035E00120B26D004D003D0021C0202EBCB
:04036B001A0202DB95
:0E036F00438010758264120B26438020758235
:0E037D0064120B26758264120B265380DF7506
:05038B008264020B2654
:0D0390000090E6017402F00075BB000090C3
:0D039D00E6F574FFF00090E6C67481F09064
:0E03AA00E6C77436F090E6C8E4F090E6C97439
:0E03B80001F090E6CAE4F090E6CBF090E6CCBF
:0E03C6007401F090E6CD7402F090E60CE4F0C5
:0E03D4000090E6047480F00090E6047402F0DD
:0C03E2000090E604E4F00075BB0400226B
:0D03EE000075BB000090E6F574FFF0009074
:0E03FB00E6047480F00090E6047402F00090B6
:0D040900E604E4F00090E60174C2F0002269
:0E04160090E6B8E0FABAC04290E6B9E0FABA51
:040424000402801D31
:0E042800BA803190E6C1E0235401FA90E7401B
:0D043600F090E68AE4F090E68B7401F0028D
:0204430004EDC6
:0E044500E5805401FA90E740F090E68AE4F07A
:0904530090E68B7401F00204ED47
:04045C007582002283
:0A04600090E6B8E0FABA400280030B
:03046A000204E9A0
:0C046D0090E6B9E0FA6014BA0102800ABF
:05047900BA0202800F31
:05047E00BA0464802BAC
:050483001203908065EA
:050488001203EE80608C
:0E048D0090E6BEE0FA7B0090E6BFE0FDE4FCE6
:0E049B004202ED4203BA044ABB00471202AA15
:0504A9001202B8803FC3
:0D04AE0090E6BAE0FAC0021202AAD0029055
:0D04BB00E740E060128AF005F07401800255
:0204C80025E02D
:0804CA00D5F0FBFB4280801B12
:0804D2008AF005F074018002BC
:0204DA0025E01B
:0904DC00D5F0FBF4FA528080080F
:0404E50075820022FA
:0404E90075820022F6
:0404ED0075820122F1
:0EE0000012010002FFFFFF40CDABEFCD341246
:04E00E000102040106
:0AE012000A060002FFFFFF400100B4
:0EE01C0009021900010100C000090400000102
:0BE02A00FFFFFF030705820200020059
:0EE0360012010002FFFFFF40CDABEFCD341210
:04E0440001020001D4
:0AE048000A060002FFFFFF4001007E
:0EE0520009021200010100C0000904000000D4
:04E06000FFFFFF03BC
:01E0640005B6
:02E0650070E069
:02E0670076E061
:02E069007EE057
:02E06B0094E03F
:02E06D00B0E021
:06E0700006030000090494
:08E0760008034E0053004C00AA
:0EE07E0016035000520049004D004F002000D4
:08E08C00760031002E00300087
:0EE094001C0352006500630065006900760001
:0EE0A2006500200043006F006E0066002E0037
:0AE0B0000A03300030003000310098
:0804F1007800E84400600C797A
:0C04F90000901800E4F0A3D8FCD9FAD061
:0E05050083D082F6D8FDC082C08375820022AA
:0805130090E6A0E04401F02293
:0E051B00AA8274805AC423541FFB740F5A9096
:0C052900E6834BF090E683E04420F022D3
:0E05350090E680E0440AF09000FA120B399034
:0E054300E65D74FFF090E65F74FFF05391EFF9
:0805510090E680E054F7F0226F
:060B6500E478FFF6D8FD64
:060B4A00750800750900AA
:0A05590090E680E0FA30E719750A19
:0305630000750B15
:03056600E0750C31
:0305690012750DFB
:03056C00E0750E29
:03056F001C750FE9
:03057200E0751021
:03057500527511AB
:02057800E0227F
:04057A00750A367553
:03057E000BE0751A
:030581000C4875AE
:030584000DE07512
:030587000E52759C
:03058A000FE0750A
:03058D00101C75CA
:0305900011E02255
:090593005391EF75A100D2003272
:0C059C00C021C0E0C0F0C082C083C002DB
:0E05A800C003C004C005C006C007C000C001EB
:0E05B600C0D075D0005391EF75A10012055909
:0E05C400D0D0D001D000D007D006D005D00492
:0D05D200D003D002D083D082D0F0D0E0D092
:0205DF002132C7
:0C05E100C021C0E0C0F0C082C083C00296
:0E05ED00C003C004C005C006C007C000C001A6
:0E05FB00C0D075D0005391EF75A100120559C4
:0E060900D0D0D001D000D007D006D005D0044C
:0D061700D003D002D083D082D0F0D0E0D04C
:02062400213281
:050626001205597512D8
:03062B00937513B1
:08062E00057582001209E77551
:03063600129C759E
:060639001305758210128A
:04063F0009E7751240
:03064300E175134B
:0C064600057582141209E790E65C74311F
:02065200F02294
:0D065400E582547FFA24F7500475820022DD
:07066100BA010475820122B9
:08066800530201E4BA00010491
:03067000F58222EE
:0E067300AA82BA010C90E6A1E0FB7C008B820B
:030681008C832245
:0E068400BA810C90E6A2E0FB7C008B828C8396
:010692002245
:0E06930053027FEA700C90E6A0E0FB7C008B27
:0406A100828C8322A2
:0E06A50090E6A3E0FB7C00EAC313FA7D00EAB6
:0906B3002BFBED3C8B82F5832248
:0C06BC00C20090E6B8E0FA530260BA00F9
:0306C80002802885
:0506CB00BA2002800DC1
:0506D000BA4002800E9B
:0506D500BA6002800381
:0306DA0002097C96
:0606DD0012051302097C66
:0A06E300120416E582600302097C90
:0606ED0012051302097C56
:0D06F30090E6B8E0FA530280BA800280035E
:0307000002087D6F
:0B07030090E6B9E0FABA00030207F428
:05070E00BA060280356F
:05071300BA0802800895
:05071800BA0A0280177F
:03071D0002087758
:0C07200090E740E508F090E68AE4F090D5
:08072C00E68B7401F002097C68
:0C07340090E740E509F090E68AE4F090C0
:08074000E68B7401F002097C54
:0A07480090E6BBE0FABA0102801748
:05075200BA020280382C
:05075700BA0302805905
:05075C00BA0602801B3B
:05076100BA0702803C14
:030766000207EE99
:0A076900AA0AAB0B90E6B3EBF07B9D
:090773000090E6B4EAF002097CF2
:0A077C00AA0CAB0D90E6B3EBF07B86
:090786000090E6B4EAF002097CDF
:0A078F00AA0EAB0F90E6B3EBF07B6F
:090799000090E6B4EAF002097CCC
:0A07A200AA10AB1190E6B3EBF07B58
:0907AC000090E6B4EAF002097CB9
:0E07B50090E6BAE0FA90E064E0FBC3EA9B40F5
:0707C3000612051302097C78
:0C07CA0090E6BAE075F002A42465F58208
:0B07D60074E035F0F583E0FAA3E0903A
:0D07E100E6B3F07B0090E6B4EAF002097C7C
:0607EE0012051302097C54
:0D07F40090E6B8E0FA53021FBA0002800A36
:05080100BA0102801D98
:05080600BA0268802E1B
:0E080B0090E7407401F090E741E4F090E68A37
:0A081900F090E68B7402F002097CF7
:0E08230090E740E4F090E741F090E68AF09014
:08083100E68B7402F002097C61
:0E08390090E6BCE0F582120654E58260259040
:0E084700E6BCE0F582120673E0FA530201905F
:0E085500E740EAF090E741E4F090E68AF09088
:08086300E68B7402F002097C2F
:06086B0012051302097CD6
:0608710012051302097CD0
:0608770012051302097CCA
:0C087D0090E6B9E0FA24F4500302097977
:07088900EA2A2A900890738F
:070890000209790208C6020B
:06089700094102092202E2
:06089D000979020979024D
:0608A30009790209790247
:0608A90009790208B40207
:0508AF0009790208BDFB
:0908B40090E6BAE0F50802097CA7
:0908BD0090E6BAE0F50902097C9D
:0D08C60090E6B8E0FA53021FBA0002800568
:0508D300BA0247800A93
:0A08D80090E6BAE012051302097C55
:0D08E20090E6BAE0703090E6BCE0F58212BE
:0D08EF000654E582602390E6BCE0F582121D
:0E08FC000673AA82AB83E0FC5304FE8A828B53
:0E090A0083ECF090E6BCE0F58212051B8064E1
:05091800120513805FD1
:05091D00120513805AD1
:0E09220090E6B8E0FA53021FBA004F90E6BA12
:07093000E0FABA01028005A4
:05093700BA020280403D
:05093C00120513803BD1
:0E09410090E6BAE0FA702C90E6BCE0F5821267
:0D094F000654E582601A90E6BCE0F58212C5
:0E095C000673AA82AB83E0FC4304018A828BFF
:05096A0083ECF0800D9C
:05096F001205138008D1
:050974001205138003D1
:0309790012051351
:08097C0090E6A0E04480F022A7
:05098400AA82BA030085
:070989004005EA249C500127
:010990002244
:09099100740F5AFBBB030280073E
:07099A00740F5AFBBB0B4573
:0A09A100A2AF9201C2AFEA2400F5F4
:0C09AB0082E43400F5837402F07B0074D9
:0C09B700012AFCE43BFDEC2400F582ED7D
:0A09C3003400F583E513FCF0740224
:0C09CD002AFAE43BFBEA2400F582EB343C
:0A09D90000F583AA127B00EAF0A2E9
:0309E3000192AFCF
:0109E60022EE
:0809E700E582FA5403600122CD
:0A09EF00A2AF9202C2AFEA2400F5A5
:0C09F90082E43401F5837402F07B00748A
:0C0A0500012AFCE43BFDEC2400F582ED2E
:0A0A11003401F583E513F074022AA6
:0B0A1B00FAE43BFBEA2400F582EB3418
:080A260001F583AA12EAF0A217
:040A2E000292AF225F
:080A3200E582FA540360012281
:0A0A3A00A2AF9203C2AFEA2480F5D8
:0C0A440082E43400F5837402F07B00743F
:0C0A5000012AFCE43BFDEC2480F582ED63
:0A0A5C003400F583E513F074022A5C
:0B0A6600FAE43BFBEA2480F582EB344D
:080A710000F583AA12EAF0A2CD
:040A79000392AF2213
:080A7D00C2E8C2EA751200751F
:060A85001301758243120B
:040A8B000984751253
:030A8F008075135C
:0C0A9200007582531209840090E650E4C5
:0E0A9E00F00090E652E4F00090E654E4F00020
:0E0AAC0090E656E4F00090E65174FFF00090E2
:0E0ABA00E65374FFF00090E65574FFF00090D4
:0E0AC800E65774FFF00090E658E4F090E6590F
:0E0AD60074FFF090E65AE4F090E65B74FFF0D7
:0E0AE40090E65CE4F090E65D74FFF090E65E54
:0E0AF200E4F090E65F74FFF00090E660E4F040
:0D0B00000090E66174FFF090E662E4F09072
:0E0B0D00E66374FFF090E665E4F090E668742D
:0A0B1B000BF05391AFD2E8D2EA22AA
:010B250022AD
:020B2600AA82A1
:060B2800120B25DAFB228E
:030B2E0090FB50E9
:080B3100A3E582458370F9225F
:040B3900AA82AB835E
:080B3D00120B2E1ABAFF011B76
:050B4500EA4B70F422F0
:030B580075812183
:0A0B5B001204F1E5826003020B535F
:00000001FF
